:020000040800F2
:10000000380500209D010008F3260008A321000800
:10001000F12600080D050008D12E000800000000A0
:10002000000000000000000000000000ED2D0008AE
:10003000190600080000000015270008EF2D000831
:10004000B7010008B7010008C52E0008B701000875
:10005000B7010008B70100081B06000837060008B2
:100060003D06000843060008B7010008B701000874
:10007000B7010008B7010008B7010008B701000880
:10008000B7010008B7010008B7010008B701000870
:10009000B7010008B7010008B701000849060008C9
:1000A000B7010008B7010008B7010008B701000850
:1000B000B7010008B7010008B7010008B701000840
:1000C000B7010008B7010008B7010008B701000830
:1000D000B7010008B7010008B7010008B701000820
:1000E00021060008112B0008B7010008B70100081D
:1000F000B7010008B7010008B7010008B701000800
:10010000B7010008B7010008B7010008B7010008EF
:10011000B7010008B7010008B7010008B7010008DF
:10012000B7010008B7010008B7010008B7010008CF
:10013000B7010008B7010008B7010008B7010008BF
:10014000B7010008B7010008B7010008B7010008AF
:10015000B7010008B7010008B7010008B70100089F
:10016000B7010008B7010008B7010008B70100088F
:10017000B7010008B7010008B7010008000000003F
:10018000B7010008B7010008DFF80CD000F040F814
:1001900000480047D136000838050020064880474F
:1001A00006480047FEE7FEE7FEE7FEE7FEE7FEE75C
:1001B000FEE7FEE7FEE7FEE7812E00088901000862
:1001C000D2B201E000F8012B491EFBD27047002299
:1001D000F6E710B513460A4604461946FFF7F0FF46
:1001E000204610BD30B50B460146002020220124D8
:1001F00009E021FA02F59D4205D303FA02F5491BF5
:1002000004FA02F52844151EA2F10102F1DC30BD0A
:10021000064C074D06E0E06840F0010394E8070053
:1002200098471034AC42F6D3FFF7B2FF883C000881
:10023000A83C000870B5094D094E002435F814108B
:1002400056F8240000F027FB012805D0641CE4B216
:10025000052CF3D3052070BD204670BD3E3C000840
:10026000340000202DE9F04F002487B00646254DCC
:10027000DFF894A003274FF00209DFF8908012E026
:100280008CB1032C0FD0012C0DD0022C0BD0042CE0
:1002900009D000BF38F81400CDE9029700905EB194
:1002A000012E11D025E0E86C40F00100E864E86C14
:1002B00000F001000590EDE7002001905AF82400BD
:1002C000694600F003FA14E0114801905AF824003E
:1002D000694600F0FBF9DFF834B00022ABF1060B01
:1002E0000F211BF9040000F039FE1BF9040000F097
:1002F0002AFE641CE4B2052CC2D307B0002000F033
:1003000009B8000000100240340000203E3C000804
:100310000000211030BCBDE8C08F0000014800F093
:10032000E3BC0000E800002070B50546002408E0AA
:10033000002223461146284602F0CCFD641CE4B29C
:100340006D1C287808B1052CF2D9BDE87040014831
:1003500000F089BDE8000020114810B50F49016088
:1003600000214FF47012C0E901120C22C2604FF458
:10037000A05340228361C0E90421C0E907121202A0
:100380004162C0E90A12016302F016F9044800F064
:10039000EBFCBDE81040024800F0A6BC0024004081
:1003A000E80000202DE9FC5F0025324F0095019503
:1003B00093468946AA463D7000284DD0014602E08A
:1003C0006D1CEDB2491C0A78002AF9D10446684632
:1003D000FFF7AAFF584600F03AF9002647E0002050
:1003E00041E0411CB1FBF5F2884605FB1211615C4E
:1003F0008DF80010811CB1FBF5F205FB1211615C58
:100400008DF80110C11CB1FBF5F205FB1211615C06
:100410008DF80210011DB1FBF5F205FB1211615CB4
:100420008DF80310411DB1FBF5F205FB1211801D83
:10043000615C8DF80410B0FBF5F105FB1100205C48
:100440008DF805000C4800F04FFC6846FFF76CFF84
:10045000387818B187F800A000F010B8584600F0BE
:10046000F6F808F0FF00A842BBD3761CF6B24E4562
:10047000B5D3F1E721000020E80000203CBCBDE836
:10048000C09F000030B50400174887B002D0012C8F
:1004900008D00FE0C16C41F00201C164C06C00F0F3
:1004A000020006E0C16C41F01001C164C06C00F0B4
:1004B000100005900D480E4D694630F8140000906C
:1004C00001200190002002900320039055F82400A1
:1004D00000F0FCF80098002281B255F8240000F0EA
:1004E000E3F907B030BD000000100240343C0008C2
:1004F0002C0000200349044A31F8101052F8200063
:1005000000F0CEB9343C00082C000020FEE70000CB
:1005100070B5002300781C46342817D00FDCA0F1FA
:100520002005142D24D2DFE805F03523232323569C
:1005300023233B3D384E234B2351111111116428C5
:1005400032D009DCA0F13505042D11D8304B03EB76
:10055000400030F8603C1DE0B02839D004DC6D2844
:1005600025D06E2804D125E0B52826D0FF2835D027
:10057000274DA0F14106343D1A2E03D205EB40036E
:1005800033F8823CA0F161061A2E03D205EB40003D
:1005900030F8C23C012924D025E04AF2DD03F9E716
:1005A0002823F7E71123F5E74FF47343F2E74BF203
:1005B0001023EFE742F21023ECE746F28403E9E769
:1005C0004FF42043E6E74AF21403E3E7C023E1E7F0
:1005D0004FF46C43DEE74FF43343DBE74FF6DD7354
:1005E000D8E743F00203012A01D143F0200309496F
:1005F0000C2000BF23FA00F202F00F0241F8242081
:10060000001F641CE4B2C0B2042CF3D370BD000020
:10061000203C0008240100207047012000F04AB867
:1006200010B54FF4804000F045F8BDE810404FF49D
:10063000805000F03FB8022000F03CB8042000F0E9
:1006400039B8082000F036B8202000F033B870B573
:10065000044600F02FF90546601C00D0641C00F031
:1006600029F9401BA042FAD370BD00000121104AB5
:10067000082816D007DC01280FD002280FD0042844
:1006800000D19172704720280DD0B0F5805F0CD05A
:10069000B0F5804FF6D1D1737047517370475172E6
:1006A0007047D172704711737047917370470000A3
:1006B00000000020044910B50A68024202D0086018
:1006C000FFF7D4FF10BD0000140401402DE9F84FDE
:1006D000DFF898B100234FF0010C4FF0030A4FF000
:1006E0000F090BF1040EB9E00CFA03F4224070D0AC
:1006F0004D68022D01D0122D0ED1DD0800EB8508CA
:10070000D8F820505E07F70E09FA07F6B5430E69D0
:10071000BE402E43C8F8206007685E0091F8048050
:100720000AFA06F508F00308AF4308FA06F848EAA3
:100730000708C0F800804F68012F05D0022F03D0B2
:10074000112F01D0122F13D1D0F80880CF6828EADA
:100750000508B74047EA08078760D0F804800F799A
:1007600028EA0408C7F300179F4047EA08074760D4
:10077000D1F804806FEA0807BF0706D1C76AA7430C
:10078000C8F3C0049C403C43C462C468AC438D6859
:10079000B5402543C5604C68E4005ED5344C256EF9
:1007A00045F001052566246E23F0030504F00104DD
:1007B0000094304C2E19B4689D072F0F09FA07F5E5
:1007C000AC43B0F1904F05D02B4DA84204D1012588
:1007D0001CE042E0002519E0284DA84201D1022585
:1007E00014E0274DA84201D103250FE0254DA84272
:1007F00001D104250AE0244DA84201D1052505E0D8
:10080000224DA84201D1062500E00725BD40254321
:10081000B560DBF800405D464E689443F60300D5B2
:1008200014432C60DEF8004075464E689443B603CE
:1008300000D514432C600D4D08352C684E68944348
:10084000F60200D514432C60084D0C352C684E6818
:100850009443B60200D514432C605B1C0A6832FA3C
:1008600003F57FF441AF00F013B80000000401402D
:100870000010024000000140000400480008004849
:10088000000C004800100048001400480018004800
:1008900018BCBDE8E08F0069084000D00120704717
:1008A00042694A40426170470AB181617047816282
:1008B00070470000014800687047000048000020B1
:1008C00010B5040013D0242084F84100206801688A
:1008D00021F001010160204600F0DBF90020606496
:1008E00084F8410044F8300FA074207410BD01203A
:1008F00010BD90F84100704770B5040004D094F822
:100900004100002510B106E0012070BD84F8405080
:10091000204600F0BFF9242084F8410020680168D7
:1009200021F0010101606068216820F070600861B9
:100930002068816821F400418160E0680128A06896
:1009400007D040F4044021688860E068022803D0A2
:1009500006E040F40040F6E721684FF4006048608C
:1009600020684168114A114341602068C16821F440
:100970000041C160D4E904010843A16940EA0120B3
:100980002168C860D4E9070108432168086020682D
:10099000016841F0010101606564202084F8410094
:1009A000256384F84250002070BD000000800002E2
:1009B0002DE9FF4F83B00446DDE9108790F8410030
:1009C000DDF848909A469346202875D15FEA0800E2
:1009D00073D0002F71D094F8400001286CD0012012
:1009E00084F84000FFF766FF0646012200901923B5
:1009F000D103204601F066FD002875D1222084F83D
:100A00004100402084F8420000256564C4F8248039
:100A100067856563CDE9009653465A46204604999A
:100A200001F0D0FC28B1606C84F8405004285FD0FD
:100A30005AE0618DFF274FF410504FF080784FF04F
:100A4000007AFF2904D927853A464346009005E0FD
:100A5000618D2185009094F8282053462046049902
:100A600001F01EFD4B46002204212046009601F0B5
:100A700029FDC8BB2068416A606A421C626201703D
:100A8000208D401E0004000C2085618DA1F1010124
:100A900061851DD1608DD8B14B4600228021204652
:100AA000009601F00FFDF8B9608DFF2806D9278563
:100AB0003A464346009507E02CE019E0608D20851A
:100AC000009594F8282053462046049901F0E8FC4C
:100AD000608D0028C6D132464946204601F01BFDF4
:100AE00040B1606C042803D0032007B000F016B8B2
:100AF0000120FAE721682020C86121684A68064B76
:100B00001A404A6084F8410084F8425084F840500A
:100B10000020EAE70220E8E700E800FE30BCBDE87C
:100B2000C08F00002DE9FF4F83B00446DDE9108738
:100B300090F84100DDF848909A469346202870D1FD
:100B40005FEA08006ED0002F6CD094F840000128B6
:100B500067D0012084F84000FFF7ACFE0646012272
:100B600000901923D103204601F0ACFC002854D199
:100B7000212084F84100402084F84200002565646B
:100B8000C4F8248067856563CDE9009653465A46CC
:100B90002046049901F04DFC28B1606C84F8405067
:100BA00004286CD039E0608DFF274FF080784FF03B
:100BB000007AFF2804D927853A464346009505E088
:100BC000608D2085009594F828205346204604998E
:100BD00001F066FC32464946204601F0C3FC18B1DC
:100BE000606C04284BD018E0606A411C6162216887
:100BF00000788862608D401E6085208D401E000454
:100C0000000C208521D1608DF8B14B460022802157
:100C10002046009601F056FC28B1032007B000F0F2
:100C200035B82EE02BE0608DFF2804D927853A46A1
:100C30004346009505E0608D2085009594F82820B6
:100C400053462046049901F02BFC608D0028C1D149
:100C500032464946204601F05EFC0028C0D121689A
:100C60002020C86121684A68074B1A404A6084F80E
:100C7000410084F8425084F840500020CEE7012023
:100C8000CCE70220CAE7000000E800FE30BCBDE867
:100C9000C08F70477047000002480168491C01601E
:100CA000704700004800002010B5032000F076F9DE
:100CB0000F2000F005F800F045F9002010BD0000FD
:100CC00010B5044607484FF47A710068B0FBF1F0A4
:100CD00001F053FA00222146501E00F03FF9002097
:100CE00010BD00004C0000202DE9F041044690F8B2
:100CF0003500012806D094F83500022802D00120E2
:100D0000BDE8F08194F8340001280CD0012084F86B
:100D10003400022784F83570FFF7CCFD06464FF407
:100D20007A7800250CE00220EAE700BFFFF7C2FD59
:100D3000801B404504D9A76384F834500320DFE7C3
:100D400020688068C0434007F0D500205FF01401A0
:100D5000226801EB8003D550401C0F28F8D92046AB
:100D600000F081F80020CBE72DE9F04104004FF0BE
:100D7000000504D094F83500002618B107E00120E2
:100D8000BDE8F08184F83460204600F06BF8022062
:100D900084F835002068016821F001010160142009
:100DA000216800EB85028E506D1C0F2DF8D920684C
:100DB000816841F004018160D4E901010843D4E96C
:100DC0000A1211430843E1690843216A0843A169F3
:100DD0000843616A084321684A68214B1A4010435E
:100DE0004860204601F06CFCD4E903100143226BFB
:100DF0006069104301432068026822F0FE0211433B
:100E000001602068016841F001010160FFF752FDB7
:100E100005464FF47A7706E0FFF74CFD401BB842D9
:100E200001D908200EE020688068C043C007F3D1D4
:100E3000FFF740FD054608E0FFF73CFD401BB842C8
:100E400003D91020A06303209AE720688068C0437C
:100E5000C006F1D4A663012084F8350000208FE796
:100E60000E0000FC70472DE9F0410446082021687F
:100E7000C8602068816841F004018160FFF71AFDB5
:100E8000054600264FF47A770BE0FFF713FD401B71
:100E9000B84206D90420A06384F834600320BDE87A
:100EA000F08120688068C0430007EED4012084F8F8
:100EB000350084F834600020F1E700002DE9F047A8
:100EC000044690F835009A4690468946012806D097
:100ED00094F83500022802D00120BDE8F08794F88C
:100EE0003500012822D194F8340001280BD00120CC
:100EF00084F83400022684F83560FFF7DBFC0546F1
:100F00004FF47A770DE00220E7E700BFFFF7D2FC4D
:100F1000401BB84205D9A663002084F834000320A2
:100F2000DBE720688068C0434007EFD514222168C2
:100F300002EB89000A5802EA080242EA0A020A5051
:100F40000020CAE7704700F01F02012191404009CC
:100F5000800000F1E020C0F800117047F0B40E4BA3
:100F60001B680C46C3F30223C3F10705042D00D907
:100F70000425191D072901D2002300E0DB1E0126EC
:100F800006FA05F1491E214099409E40761E164002
:100F90003143F0BC01F0AEBB0CED00E0064900F0BF
:100FA000070208684FF6FF03184040EA0220034A90
:100FB00010430860704700000CED00E00000FA05E7
:100FC0001549B0F5007F0868C0F3412009D0022818
:100FD00005D0086820F4C06040F4806008600020FC
:100FE00070470128FBD0086820F4C06040F400700E
:100FF00008600A480A4A0068B0FBF2F03222504307
:1010000000E0401E10B14A695205FAD44869400513
:10101000E5D5032070470000007000404C00002020
:1010200040420F000248416841F40071416070473E
:10103000007000400248006800F4C0607047000083
:10104000007000400248016841F4807101607047FF
:10105000007000402DE9F84F044600270088E54D58
:101060003E46010504F1200B1DD5606E78B1B0F548
:10107000800F11D0B0F5000F04D0B0F5400F22D092
:1010800001270FE0E86840F48030E8601BE00021B1
:10109000201D01F041FB03E00021584601F0F0FB68
:1010A000070010D03E462088C00426D5A06EC0B1EF
:1010B000B0F1807F1AD0B0F1007F0DD0B0F1407F49
:1010C00019D0012718E0D5F88800616E20F440009F
:1010D0000843C5F88800E6E7E86840F48030E86037
:1010E00009E00021201D01F017FB03E00021584614
:1010F00001F0C6FB0746F7B13E46206880033AD5AB
:10110000A86D4FF00008C00009D4A86D40F08050D1
:10111000A865A86D4FF0010800F080500090DFF83E
:10112000D8A2DAF8001041F48071CAF80010FFF775
:10113000C1FB814610E0D5F88800A16E20F0407018
:101140000843C5F88800D8E7FFF7B4FBA0EB090017
:10115000022801D9032705E0DAF80000C005F3D51D
:10116000002F7CD04FEA0706B8F1000F03D0A86D1E
:1011700020F08050A8652078C00707D0D5F88800F7
:10118000A16B20F003000843C5F888002078800791
:1011900007D5D5F88800E16B20F00C000843C5F8AE
:1011A00088002078400707D5D5F88800216C20F00A
:1011B00030000843C5F888002078000707D5D5F827
:1011C0008800616C20F0C0000843C5F888002078D2
:1011D000C00607D5D5F88800A16C20F440700843FC
:1011E000C5F888002078800607D5D5F88800E16C1E
:1011F00020F440600843C5F888002088800507D5A2
:10120000D5F88800E16D20F440200843C5F8880037
:101210002088400507D5D5F88800216E20F44010BD
:101220000843C5F888002078400607D5D5F888001F
:10123000216D20F440500843C5F88800207800064E
:1012400007D5D5F88800616D20F440400843C5F803
:1012500088002088C00509D5D5F8880000E01CE08A
:10126000A16D20F440300843C5F8880020884FF075
:10127000006780044FF080684FD5D5F88800E16E94
:1012800020F040600843C5F88800E06EB8423CD1C9
:10129000E86840F48010E8603FE0D5F8900010F472
:1012A000407015D0D4F88410814211D0D5F8900048
:1012B000D5F8901020F4407041F48031C5F89010BA
:1012C000D5F8901021F48031C5F89010C5F8900041
:1012D000C00710D0FFF7EEFA074641F2883906E062
:1012E000FFF7E8FAC11B494501D903263CE7D5F8C9
:1012F00090008007F4D5D5F89000D4F8841020F43D
:1013000040700843C5F890002EE7404505D1012103
:10131000201D01F001FA00B106462068000317D530
:10132000D5F88800216F20F040600843C5F8880098
:10133000206FB84204D1E86840F48010E86007E00C
:10134000404505D10121201D01F0E6F900B1064616
:101350002068400317D5D5F88800616F20F0406001
:101360000843C5F88800606FB84204D1E86840F4CB
:101370008010E86007E0404505D10121201D01F003
:10138000CBF900B10646208840041AD5D5F888006C
:10139000A16F20F040500843C5F88800A06FB0F15D
:1013A000805F03D0B0F1005F05D00AE00221201D6C
:1013B00001F0B2F903E00221584601F061FA00B1F0
:1013C00006462088000407D5D5F88800E16F20F094
:1013D00080400843C5F888002068C00307D555F849
:1013E000880FD4F8801020F0004008432860304671
:1013F00000F004B8001002400070004018BCBDE8C6
:10140000E08F00002DE9F047DFF8688105460E46C1
:10141000D8F8000000F00700B0420CD2D8F8001055
:1014200021F007013143C8F80010D8F8000000F09F
:101430000700B04274D128784F4C800705D5A068CA
:10144000A96820F0F0000843A0602878C00756D0B3
:101450006868022818D0032819D02168D0B149053E
:1014600000295DDAA16821F003010143A160FFF7C3
:1014700021FA6968074641F28830022912D003290F
:101480001ED0814649B335E021688903E8E7216829
:101490008901E5E78907E3E7FFF70CFAC11B494536
:1014A00001D924E08146A068C0F381000228F3D16D
:1014B00025E000BFFFF7FEF9C11B494501D916E041
:1014C0008146A068C0F381000328F3D117E000BF74
:1014D000FFF7F0F9C11B494509D8A06810F00C0FBF
:1014E000F6D10CE0FFF7E6F9C11B494502D903200C
:1014F000BDE8F087A068C0F381000128F2D1D8F8D8
:101500000010404601F00701B1420BD9016821F0FB
:10151000070131430160006800F00700B04201D0CC
:101520000120E5E72878400705D5A068E96820F4A0
:10153000E0600843A0602878000706D5A068296904
:1015400020F4605040EAC100A06000F01BF8A168E0
:10155000F02292FAA2F201F0F001B2FA82F2D14046
:10156000064A515CC840064908600F20FFF7A8FBF7
:101570000020BDE70020024000100240483C000867
:101580004C00002070B53B49002318468A683A4C4D
:1015900012F00C0F4FEA640514D08A68C2F381027E
:1015A000032A04D1CA6802F00302012A0AD08A6819
:1015B000C2F38102012A21D08A68C2F38102022A81
:1015C0001ED01EE00A68120706D4D1F894204FF40A
:1015D000706302F4706203E00A68F02302F0F00224
:1015E00093FAA3F3B3FA83F3DA40244B53F822308F
:1015F0008A6812F00C0F04D1184602E0204600E081
:1016000028468A68C2F38102032A31D1C868CA68B1
:1016100000F00300702696FAA6F602F07002B6FA01
:1016200086F6F240521C4FF4FE46022804D00328EE
:1016300005D0B3FBF2F004E0B4FBF2F001E0B5FB3F
:10164000F2F0CA6896FAA6F302F4FE42B3FA83F304
:10165000DA40C96850434FF0C06292FAA2F201F03A
:10166000C061B2FA82F2D140491C4900B0FBF1F0EE
:1016700070BD0000001002400024F400583C000837
:101680002DE9F84304460078FE4DC00663D5A868EE
:1016900010F00C0F0AD0A0690028286878D040F01C
:1016A00001002860FFF706F906465AE0286880071F
:1016B00002D5A06900286AD0216A28684FF0F00698
:1016C000000703D5286800F0F00003E0D5F8940087
:1016D00006EA1010814216D9084601F06FF9002879
:1016E00055D1286840F0080028602868216A20F059
:1016F000F000084328606868E16920F47F4040EA10
:101700000120686015E0286840F00800286028681B
:10171000216A20F0F000084328606868E16920F43D
:101720007F4040EA01206860206A01F047F9002804
:10173000D6D1FFF727FFA96896FAA6F201F0F001CB
:10174000B2FA82F2D140D04A515CC840CF49086019
:101750000F20FFF7B5FA2BE0FFF7ACF8801B02284B
:101760007ED828688007F7D5286840F008002860F0
:101770002868216A20F0F000084328606868E16961
:1017800020F47F4040EA0120686011E000E0B7E00B
:1017900020F001002860FFF78DF8064605E000BF45
:1017A000FFF788F8801B0228DAD828688007F7D46A
:1017B0002078C00748D0A868C0F3810002281DD057
:1017C000A868C0F38100032803D1E868C0438007FC
:1017D00014D06068B0F5803F17D0B0F5A02F28680E
:1017E00017D020F480302860286820F480202860FA
:1017F0006068E0B1FFF75EF8064614E028688003F1
:1018000022D5606800287BD01EE0286840F4803034
:10181000EDE740F480202860F7E700BFFFF74AF8C3
:10182000801B64289CD828688003F7D50CE0FFF75C
:1018300041F8064605E000BFFFF73CF8801B64282E
:101840008ED828688003F7D42078800748D5A86808
:101850004FF0F857C0F38100012816D0A86800E0C7
:10186000AFE0C0F38100032804D1E86800F0030072
:1018700002280AD0E0680028286821D040F480704F
:101880002860FFF717F806460BE0286840050BD5DF
:10189000E0680028B7D007E0FFF70CF8801B0228AB
:1018A000C0D828684005F7D5686897FAA7F221697B
:1018B000B2FA82F220F0F8509140084368600FE0DD
:1018C00020F480702860FEF7F5FF064605E000BFB3
:1018D000FEF7F0FF801B022873D828684005F7D474
:1018E0002078000729D560690028D5F8940013D026
:1018F00040F00100C5F89400FEF7DCFF064606E064
:10190000FBE000BFFEF7D6FF801B022859D8D5F8B0
:1019100094008007F6D510E020F00100C5F894008F
:10192000FEF7C8FF064604E0FEF7C4FF801B02284E
:1019300047D8D5F894008007F6D42078400763D5BF
:10194000A86D0026C00008D4A86D40F08050A8659E
:10195000A86D012600F0805000904D480168C9052F
:1019600011D40168804641F480710160FEF7A2FF46
:10197000074604E0FEF79EFFC01B022821D8D8F8D6
:101980000000C005F6D5A068012815D00528D5F8B7
:10199000900017D020F00100C5F89000D5F8900015
:1019A00020F00400C5F89000A06841F28838C8B162
:1019B000FEF780FF074610E0D5F8900040F00100E8
:1019C000F0E75EE040F00400C5F89000F4E700BFE7
:1019D000FEF770FFC11B414553D8D5F89000800732
:1019E000F6D50CE0FEF766FF074604E0FEF762FF5F
:1019F000C11B414579D8D5F890008007F6D41EB1B7
:101A0000A86D20F08050A865A06AC8B3A968C1F38A
:101A10008101032972D00228286820F08070286094
:101A200011D02868000106D42868800003D4E86833
:101A300020F00300E860E86816490840E860FEF717
:101A400039FF044654E0FEF735FF064605E000BFC7
:101A5000FEF730FF801B022847D828688001F7D4A2
:101A6000206BE16A000110380843616BA26B090228
:101A7000120941EA42410843A18F074A49080DE093
:101A800039E032E000100240483C00084C000020E1
:101A900000700040FFFFEEFE0000E0FF02EB41514E
:101AA000084394F840104908120102EB41610843D1
:101AB000E860286840F080702860E86840F0807036
:101AC000E860FEF7F7FE044605E000BFFEF7F2FE11
:101AD000001B022809D828688001F7D50BE000BF59
:101AE000FEF7E8FE001B022802D90320BDE8F883B8
:101AF00028688001F4D40020F8E7FFE70120F5E72B
:101B000070477047704770472DE9F04133490446EC
:101B10004FF4002008608D13061D314F40E08168AE
:101B200009040CD5C068000509D5204600F05AF814
:101B30002068C16801F0800161F40861C16020681B
:101B4000016C29420BD0C168890408D5C16801F035
:101B5000800161F40251C1602046FFF7D2FF206886
:101B6000016C31420BD0C168490408D5C16801F04D
:101B7000800161F48141C1602046FFF7C3FF206806
:101B8000016C39420CD0C168090409D5C16801F063
:101B90008001A1F500418139C1602046FFF7B3FF04
:101BA00020688168090402D5C1680905B7D4016CB1
:101BB000294202D0C1688904B1D4016C314202D0FB
:101BC000C1684904ABD4016C394202D0C168090430
:101BD000A5D4012084F82100BDE8F081140401405F
:101BE00004004000704710B504460120FEF782FC57
:101BF000FEF794FB2046BDE8104001F0B3B80000AA
:101C000010B51B4904464FF4802008601EE0886828
:101C1000C0040BD5C868C00508D5C86800F08000AE
:101C200060F4C070C8602046FFF7DDFF206881685F
:101C300089040BD5C168890508D5C16801F0800108
:101C400061F42071C1602046FFF75AFF216888685F
:101C5000C00402D5C868C005D9D48868800402D5FC
:101C6000C8688005D3D4012084F8210010BD00008D
:101C70001404014010B500680B4641680D4801404E
:101C8000080CD870C1F304245C7001F03F049C7010
:101C9000C1F34231197052B900F040FFD870587842
:101CA00000F03CFF5870987800F038FF98700020E2
:101CB00010BD00003FFFFF0010B50B460168896AA8
:101CC000596001680969C1F30E01996000680168F3
:101CD0000E480140C1F305401870C1F306245C7042
:101CE00001F07F049C70402404EA1141D97052B97C
:101CF00000F014FF1870587800F010FF58709878B2
:101D000000F00CFF9870002010BD00007F7F7F0066
:101D100070B5040003D094F8210010B107E0012051
:101D200070BD002084F82000204600F04DF802200D
:101D300084F821002168CA20486221685320486243
:101D4000204600F0F1FFFF25042618BB20688168BB
:101D50001C4A11408160216888686268A369104349
:101D600022691A43104388602168E068086120688E
:101D70000169228941EA024101612068C16821F0BC
:101D80008001C16020688068800608D4204600F089
:101D9000D9F920B12068456284F82160BFE7206846
:101DA000C16C21F00301C1646169E06908432168E5
:101DB000CA6C1043C86420684562012084F8210081
:101DC000002070BDBFFF8FFF704700002DE9F05F5E
:101DD000044690F820000B46012849D04FF0010A34
:101DE00084F820A0022084F8210020680026806862
:101DF0004FEA4060DAB3002857DA187800F08EFE18
:101E000093F8200000F08AFE98781978DA7840EA92
:101E100001405978090241EA0241084393F8201031
:101E200040EA0165D8695F68054358692168054340
:101E300098690743CA204862216853204862586A5B
:101E40004FF0FF08B0F5807F20684FF47A7B8168FF
:101E50002DD021F4007181602068C16801F08001FB
:101E600061F42071C160FEF725FD814655E002E076
:101E7000022000F07BB8002800DBDE70187800F04C
:101E800056FE0204587800F052FE42EA002298788A
:101E900000F04DFE0243D87842EA004293F8200059
:101EA00000F045FE42EA0065BCE7DE70A8E721F4D9
:101EB000807181602068C16801F0800161F4C071A7
:101EC000C160FEF7F7FC814606E000BFFEF7F2FCBA
:101ED000A0EB0900584517D82068C068C007F5D0A6
:101EE0002068C561206847642068816841F480717A
:101EF00081602068816841F480511FE0FEF7DAFCC0
:101F0000A0EB0900584508D92168C1F824800320B6
:101F100084F8210084F82060ABE72068C06880075F
:101F2000ECD520680562206887642068816841F4E8
:101F3000007181602068816841F4005181600A4825
:101F4000016841F48021016007480830016841F4CC
:101F5000802101602168C1F8248084F821A084F8E0
:101F60002060002085E700000004014030BCBDE88F
:101F7000C09F00002DE9F047044690F820000B4672
:101F8000012826D04FF0010984F82090022084F81F
:101F90002100587802B300F0C1FD987800F0BEFD32
:101FA0009878D97840EA014558781978000240EAD3
:101FB000413005432168CA204862216853204862A5
:101FC000204600F0B1FE0026FF274FF0040858BB62
:101FD00019E00220BDE8F087C10603D500F0EF004C
:101FE0000A305870D87800F0A2FD0204587800F04A
:101FF0009EFD42EA0022987800F099FD024318788D
:1020000042EA4035D6E71048054020684560206820
:10201000C16821F08001C1602068806880060BD40F
:10202000204600F08FF838B12068476284F821809C
:1020300084F820600120CDE72068476284F8219071
:1020400084F820600020C5E73FFFFF002DE9F0473E
:10205000044690F820000D46012812D04FF0010AE6
:1020600084F820A0022084F82100206800268068DF
:102070004FEA406042B100281ADA287800F04EFD9D
:1020800017E00220BDE8F087002800DBEE7028781A
:1020900000F04DFD0204687800F049FD42EA00229C
:1020A000A87800F044FD0243E87842EA00470AE0DD
:1020B000EE70A878297840EA01476878E97800024C
:1020C00040EA014007432168CA2048622168532042
:1020D0004862204600F028FE4FF0FF084FF0040948
:1020E000E0B917480740206807602068816821F43C
:1020F00080218160D5E90301084321688A68104383
:1021000088602068C16821F08001C1602068806813
:1021100080060CD4204600F015F840B12168C1F8C3
:10212000248084F8219084F820600120AAE72168A7
:10213000C1F8248084F821A084F820600020A1E761
:102140007F7F7F0070B504460068C16821F0A00160
:10215000C160FEF7AFFB05464FF47A7607E000BF9B
:10216000FEF7A8FB401BB04201D9032070BD2068D8
:10217000C0688006F4D5002070BD10B5401EB0F1D7
:10218000807F01D3012010BD4FF0E02460610F215A
:10219000601700F0AFFA0020A06107202061002046
:1021A00010BDFEE77FB5044600208DF80C0040F618
:1021B000B835012303A88DE8290002232046FEF745
:1021C000F7FB10B1204600F02DF89DF80C0004B08C
:1021D00070BD00003FB5054690F8410083B020284F
:1021E00002D0012007B030BD40F6B834012306A864
:1021F0008DE8190002232846FEF794FC084C207055
:1022000018B1284600F00EF807E02846FEF771FBEB
:102210002028FAD10A20FEF71AFA2078E2E7000017
:102220002000002010B50446FEF74AFB2046BDE81A
:10223000104000F011B801688A69D243920701D4B6
:1022400000228A6200688169C943C90703D0816995
:1022500041F001018161704710B50446FEF749FB6A
:10226000002815D10B4820600B4860600020012138
:10227000C4E9020120616061E061206200F04CF875
:102280002046FEF739FB00BF94F841002028FBD11F
:1022900010BD000000540040262611902DE9F041A9
:1022A0000446006890460E468069C043C0062ED49E
:1022B0000025202720688069C043800611D5701C46
:1022C000F8D02EB1FEF7F6FAA0EB0800B042F1D933
:1022D00084F8417084F8425084F840500320BDE8EF
:1022E000F08121681020C8612068C7612046FFF78F
:1022F000A2FF54F8440B4168064A11404160042093
:1023000044F820096777A57725770120E7E70020C3
:10231000E5E7000000E800FE30B5284CA9B0A06D4C
:1023200040F08050A065A06D00F080502790FEF72F
:1023300079FE4025A014009514906846FEF78AFEA9
:10234000E06C40F00200E064E06C22A900F00200C2
:1023500027901220CDE922500120249002202590C0
:102360000420174D26902846FEF7B0F980202290D1
:1023700022A92846FEF7AAF9A06D40F40010A06536
:10238000A06D00F400102790A06B40F40010A06333
:10239000A06B20F40010A063002201211F20FEF793
:1023A000DDFD1F20FEF7CFFD002201212020FEF7DA
:1023B000D5FD2020FEF7C7FD29B030BD001002403A
:1023C000000400482DE9F84304461646DDE9089765
:1023D0004FF400509846DAB200900023204600F0F7
:1023E0005FF83A464946204600F0BCF818B1606CE8
:1023F00004281CD018E0F5B2B8F1010F09D021680B
:10240000300A88623A464946204600F0ABF8002878
:10241000EDD1206885624B4600224021204600977E
:1024200000F050F8002800D00320BDE8F883012018
:10243000FBE72DE9F843044616464FF40050984652
:10244000DDE90897DAB2C3020090204600F028F8D0
:102450003A464946204600F085F818B1606C0428D9
:102460001CD018E0F5B2B8F1010F09D02168300A8C
:1024700088623A464946204600F074F80028EDD1BB
:10248000206885624B46002280212046009700F09C
:1024900019F8002800D00320BDE8F8830120FBE7ED
:1024A00070B50568049E6C6805480440C1F30900D6
:1024B00040EA0240184330432043686070BD00008A
:1024C000009800FC2DE9F0411D4617460E460446D3
:1024D000DDF8188013E0681C11D02DB1FEF7EAF981
:1024E000A0EB0800A8420AD9202084F8410000206F
:1024F00084F8420084F840000320BDE8F0812068A1
:10250000806936EA000004D00020B842E3D0002001
:10251000F3E70120F9E770B516460D4604461AE0C8
:10252000324629462046FFF7B9FE08B1012070BDAA
:1025300025B1FEF7BFF9801BA8420CD954F8440F0F
:1025400040F0200044F80409202060700020A070B2
:102550002070032070BD20688069C0438006DFD4EE
:10256000002070BD70B516460D4604461CE032468C
:1025700029462046FFF792FE08B1012070BD681C75
:1025800012D025B1FEF796F9801BA8420CD954F859
:10259000440F40F0200044F804092020607000201F
:1025A000A0702070032070BD20688069C043800740
:1025B000DDD4002070BD000030B5B9B0142122A8D0
:1025C000FDF705FE442127A8FDF701FE8821684696
:1025D000FDF7FDFD364CA06D40F08050A065A06D6C
:1025E000002500F08050389004203195279001207C
:1025F000299027A8FFF744F800B1FEE74FF4003018
:102600000090401221906846FEF724FDE06C40F0F7
:102610000100E064E06C00F001003890E06C40F0F4
:102620000200E064E06C00F002003890E06C40F0E2
:102630000400E064E06C00F004003890E06C40F0CE
:102640000800E064E06C22A900F00800389048F22D
:10265000C07022900220CDE92305032025900B2095
:1026600026904FF09040FEF731F84FF23320229041
:1026700022A91048FEF72AF84FF4FC70229022A9F4
:102680000D48FEF723F84FF47F40229022A90B4813
:10269000FEF71CF80220FDF7DAFFA06D40F4007091
:1026A000A065A06D00F40070389039B030BD000016
:1026B000001002400004004800080048000C0048D8
:1026C00070B50446FEF7F6F805464FF47A7608E052
:1026D000FEF7F0F8401BB04203D90120A0630320AD
:1026E00070BD20688068C0438006F1D4002070BDB2
:1026F000FEE770470907090E002806DA00F00F0010
:1027000000F1E02080F8141D704700F1E02080F80F
:1027100000147047704700002DE9F041544C054605
:102720000F46E0680026820728684FF0700112D03B
:10273000E26802F0030282421BD1D0B1E06891FA54
:10274000A1F100F07000B1FA81F1C8406968401C45
:1027500088420ED122E0012804D0022805D00328A7
:1027600007D108E02268920701E022685205002A9A
:1027700007DB012678E02268920302D42268520324
:10278000F5E7E26891FAA1F122F073036A68B1FA01
:1027900081F1521E8A4013430343E360206820F016
:1027A00080602060FEF786F8804605E0FEF782F83C
:1027B000A0EB080002284ED820680001F6D44FF4A0
:1027C000FE4017B390FAA0F0A968012FB0FA80F08C
:1027D0004FF0FF3201FA00F12AD0686902EB500095
:1027E0004FF0C06292FAA2F2B2FA82F29040014334
:1027F0002069204A104001432161206840F0806038
:102800002060FEF757F8074627E090FAA0F0A96885
:10281000B0FA80F08140E8684FF4003292FAA2F2F8
:102820000009B2FA82F2904001432069124AE1E7BE
:10283000286902EB50004FF4C00292FAA2F2B2FAF9
:1028400082F29040014320690C4AD3E7FEF732F848
:10285000C01B022801D9032606E020680001F5D537
:102860002069A969084320613046BDE8F081000075
:1028700000100240FF80FFF9FF80FDFFFF809FFFF7
:102880002DE9F0414A4C06468846E068002581075C
:1028900030684FF0700312D0E16801F0030181420B
:1028A0001BD1D0B1E06893FAA3F100F07000B1FA47
:1028B00081F1C8407168401C88420ED122E0012895
:1028C00004D0022805D0032807D108E02168890731
:1028D00001E021684905002907DB012564E0216842
:1028E000890302D421684903F5E7E16893FAA3F369
:1028F00021F073027168B3FA83F3491E99400A43C9
:102900000243E260206820F080502060FDF7D2FF93
:10291000074604E0FDF7CEFFC01B02283BD8206825
:102920008000F7D44FF4FE4191FAA1F1B068B8F1FC
:10293000000FB1FA81F100FA01F019D031694FF0BE
:10294000FF3202EB51014FF0C06292FAA2F2B2FAEA
:1029500082F2914008436169164A11400843606160
:10296000206840F080502060FDF7A4FF074614E087
:10297000F1684FF4003292FAA2F20909B2FA82F237
:102980009140084361690C4AE7E700BFFDF792FFF9
:10299000C01B022801D9032506E020688000F5D578
:1029A00060697169084360612846BDE8F0810000F4
:1029B00000100240FF80FFF9FF80FDFFF8B51C4DBD
:1029C00006460024A86DC00002D5FEF733FB0DE0DB
:1029D000A86D40F08050A865A86D00F08050009070
:1029E000FEF728FBA96D21F08051A965B0F5007FA5
:1029F00004D0802E07D94FF003040AE0802E08D9B6
:102A0000A02E01D804E001D1022402E0702E00D1F2
:102A100001240848016821F0070121430160006892
:102A200000F00700A04201D00120F8BD0020F8BD51
:102A3000001002400020024000B58BB04FF48070BF
:102A400009904FF080300590012269460D48FFF74C
:102A5000BDF920B1FDF762FC0BA0FDF765FC09484C
:102A60000068C16801F0800161F4C071C160292073
:102A7000FEF769FA002203212920FEF76FFA0BB056
:102A800000BD0000B000002041205320580000008D
:102A900090F82010012919D0012180F8201002227D
:102AA00080F821200368CA225A62036853225A62BE
:102AB0000268936823F4805393600368FF225A628C
:102AC00080F82110002180F8201070470220704704
:102AD00090F82010012919D0012180F8201002223D
:102AE00080F821200368CA225A62036853225A627E
:102AF0000268936843F4805393600368FF225A622C
:102B000080F82110002180F82010704702207047C3
:102B10000148FFF775B80000B0000020010901EB83
:102B2000810100F00F0000EB4100C0B270470021AE
:102B300002E00A38C0B2491C0A28FAD2090740EA62
:102B40001160704770B5514C88B054F8580F40F080
:102B500080502060206800F080500690FEF772FAE6
:102B600054F8380F20F4407040F4807020602068E2
:102B700040F4004001C4206840F0010044F894098A
:102B8000032302205FF0010290FAA0F1B1FA81F173
:102B900041F06001B2EB511F01D1216818E090FAB9
:102BA000A0F1B1FA81F141F06001B0EB511F02D107
:102BB000D4F890100CE090FAA0F1B1FA81F141F054
:102BC0006001B3EB511F02D1D4F8941000E0E16929
:102BD00090FAA0F5B5FA85F505F01F0502FA05F59E
:102BE0002942D1D02B4C2A480026C4E900067F2078
:102BF000A060FF20E060A6614FF40010E661206154
:102C00002046FFF785F820B1FDF788FB22A0FDF7ED
:102C10008BFB234D002205A968798DF817002879D0
:102C20008DF81500E8788DF81600A8788DF8140056
:102C30001848FFF79FF920B1FDF770FB19A0FDF7C9
:102C400073FB287A8DF80000E8798DF80100A879E7
:102C50008DF802000396002269460E480496FFF79D
:102C6000F5F920B1FDF75AFB10A0FDF75DFB2068D8
:102C7000016C21F001010164016C21F00801016483
:102C80000448FFF75FFA08B070BD00000010024072
:102C900000280040B0000020525420492058000075
:102CA0000000002044204920580000005420492002
:102CB0005800000038B504461448FFF7E9FE1349F0
:102CC000002224312046FEF7F7FF0022104920465B
:102CD000FEF7D0FF0E48A0F118018278CA70437841
:102CE0000B71C0784871009008480AA1563800F06E
:102CF00021FB06484FF4FA7201215638FDF752FBCA
:102D0000BDE838400148FFF7E3BE0000B0000020F6
:102D100018000020206425303275206D2530327572
:102D2000207925303275200070B504460068C168EE
:102D3000490614D44FF0FF31C160FDF7BBFD0546D5
:102D40004FF47A7607E000BFFDF7B4FD401BB042B8
:102D500001D9032070BD2068C0684006F4D500206A
:102D600070BD000038B5044600220E49FEF7A4FFEE
:102D700000220D492046FEF77DFF0A490A4818380F
:102D80008C7884714B78C3710A780272054807A168
:102D90008438009400F0CEFABDE838400148843809
:102DA000FDF7C2BAD400002018000020253032758B
:102DB000253032752530327500000000094800F1D9
:102DC00018014279CA7002794A70C2788A70827892
:102DD0000A700549027A0A70C2794A70807988704F
:102DE0007047000000000020D40000207047FDF76D
:102DF00053BF000010B598B0142111A8FDF7E7F9F2
:102E000044216846FDF7E3F9142000900120029068
:102E1000602100240690CDE907410221CDE90A1086
:102E20000C9028200D9007200E900420CDE90F0172
:102E30006846FEF725FC00B1FEE70F201190032045
:102E4000CDE912041494042111A81594FEF7DAFABE
:102E500000B1FEE7094CA06D40F08050A065A06D68
:102E600000F0805016902015FEF7AAF800B1FEE79A
:102E7000A06D20F08050A06518B010BD0010024079
:102E80000D48016841F4700101600C48016841F08F
:102E900001010160002181600268094B1A40026053
:102EA0008214C260026822F48022026081610249B9
:102EB000C00380390860704788ED00E000100240D0
:102EC000FFFFF6EA0148FEF71FBE0000B000002039
:102ED000FEE700002DE9F0411D46FDF719FBFE4C11
:102EE000062D7DD2DFE805F0034FA3F6F4F320783A
:102EF000FA4DC107C90E00F0020241EA825100F00A
:102F0000040241EA025300F008000343F2482A4653
:102F100000213C38FDF7D2FF2079C107C90E00F02F
:102F2000020241EA825100F0040241EA025300F039
:102F300008000343E8482A4602213C38FDF7BEFF5B
:102F4000207AC107C90E00F0020241EA825100F066
:102F5000040241EA025300F008000343DE482A4617
:102F600004213C38FDF7AAFF207BC107C90E00F001
:102F7000020241EA825100F0040241EA025300F0E9
:102F80000800034350E02078D54DC107490E00F0FA
:102F9000020241EA023100F0040241EA822100F01B
:102FA000080041EA8003CC482A4600213C38FDF75E
:102FB00085FF2079C107490E00F0020241EA023183
:102FC00000F0040241EA822100F0080041EA800397
:102FD000C1482A4602213C38FDF770FF207A00E004
:102FE000A3E1C107490E00F0020241EA023100F0FC
:102FF000040241EA822100F0080041EA8003B64859
:103000002A4604213C38FDF759FF207BC107490EB1
:1030100000F0020241EA023100F0040241EA82219A
:1030200000F0080041EA80032A4606211DE12078CD
:10303000AC4DC107090C00F0020241EA027100F038
:10304000040241EA826100F0080041EAC023A2487C
:103050002A4600213C38FDF731FF2079C107090CD1
:1030600000F0020241EA027100F0040241EA8261CA
:1030700000F0080041EAC02397482A4602213C3864
:10308000FDF71CFF207AC107090C00F0020241EA9B
:10309000027100F0040241EA826100F0080041EA96
:1030A000C0238D482A4604213C38FDF707FF207BCA
:1030B000C107090C00F0020241EA027100F00402AB
:1030C00041EA826100F0080041EAC023ACE7D2E0A7
:1030D0005FE0FFE720786FF04045C10700F008008F
:1030E00041EAC0637C482A4600213C38FDF7E6FEF1
:1030F0002078AE0000F00203C0F38000034376485E
:10310000324601213C38FDF7D9FE20792A46C10715
:1031100000F0080041EAC0636F4802213C38FDF727
:10312000CDFE2079324600F00203C0F38000034355
:10313000694803213C38FDF7C1FE207A2A46C107C1
:1031400000F0080041EAC063634804213C38FDF701
:10315000B5FE207A324600F00203C0F3800003433C
:103160005D4805213C38FDF7A9FE207B2A46C107B2
:1031700000F0080041EAC063574806213C38FDF7DB
:103180009DFE207B324600F00203C0F38000034323
:103190006AE020786FF0407600F00201090600F046
:1031A000040041EA80534C48324600213C38FDF788
:1031B00085FE2068042505EA500100F0010041EA7F
:1031C000C0034548B7153A4601213C38FDF776FE65
:1031D0002079324600F00201090600F0040041EABD
:1031E00080533D4802213C38FDF768FE60683A464E
:1031F00005EA500100F0010041EAC003364803210E
:103200003C38FDF75BFE207A324600F002010906E9
:1032100000F0040041EA80532F4804213C38FDF7B8
:103220004DFEA0683A4605EA500100F0010041EA6F
:10323000C003294805213C38FDF740FE207B32467B
:1032400000F00201090600F0040041EA8053224820
:1032500006213C38FDF732FEE0683A4605EA5001A7
:1032600000F0010041EAC0030721BDE8F0411A481F
:103270003C38FDF723BE20781B4DC107890B00F0B9
:10328000020241EAC21100F0040241EAC21100F058
:10329000080041EAC05310482A4600213C38FDF797
:1032A0000DFE2079C107890B00F0020241EAC2112C
:1032B00000F0040241EAC21100F0080041EAC053E4
:1032C00005482A4602213C38FDF7F8FD207AC1075F
:1032D000890B00F0020209E024010020E7FF3FFF14
:1032E0009FCFFFFFFF3FFFCFFFFCFDFB41EAC21175
:1032F00000F0040241EAC21100F0080041EAC053A4
:103300002A4604210A48FDF7D9FD207BC107890B15
:1033100000F0020241EAC21100F0040241EAC211C7
:1033200000F0080041EAC0537EE6BDE8F0810000ED
:10333000E80000200FB4084B10B504A902AA0398B6
:1033400000F01CF8044602A9002000F0BBF920465A
:1033500010BC5DF814FB0000C536000802E008C888
:10336000121F08C1002AFAD170477047002001E0FF
:1033700001C1121F002AFBD1704700002DE9FF4F49
:103380008BB088460546002606E025280BD0DDE9EF
:103390000D1290476D1C761C28780028F5D10FB0CF
:1033A000304600F063B90024A146A2460122AE498E
:1033B00000E0044315F8013F203B02FA03F0084205
:1033C000F7D128782A2810D06FF02F022878A0F1A2
:1033D0003001092915D809EB890102EB410144F0BC
:1033E000020400EB01096D1CF0E758F8041B5FEACA
:1033F000010903D544F40054C9F1000944F0020462
:103400006D1C28782E2817D115F8010F44F00404FC
:103410002A280ED06FF02F022878A0F13001092958
:103420000AD80AEB8A0102EB410100EB010A6D1C8C
:10343000F2E758F804AB6D1C28786C280FD006DC36
:103440004C2817D068280DD06A2814D104E07428BD
:1034500010D07A280FD10DE044F400140AE044F4AF
:10346000801401E044F440146978814202D104F5EB
:1034700080146D1C6D1C2878692865D006DC002836
:103480008DD0632827D0642806D15DE06E2808D04F
:1034900073282AD0752877D0DDE90D129047761C65
:1034A000E0E0C4F30250022809D003280DD0D8F878
:1034B000001004280DD00E6008F10408D2E0D8F8FE
:1034C0000010F217C1E90062F6E7D8F800100E808C
:1034D000F2E70E70F0E718F8041B8DF800100020DA
:1034E0008DF80100EB46012003E058F804BB4FF0D3
:1034F000FF3061074FF0000701D40AE07F1C5745F9
:103500000DDA8742FADB1BF807100029F6D106E036
:103510007F1C8742FCDB1BF807100029F8D1DDE98E
:103520000D23A9EB07008146214600F0B4F8304492
:10353000C61904E0DDE90D121BF8010B90477F1E50
:10354000F8D22146484688E058F8040BC4F30251EB
:103550004FF00A0B032900D100B2042900D140B278
:10356000002802DA40422D2102E0210505D52B2159
:103570008DF82410012104E006E0E10710D020219D
:10358000F6E708AF089113E058F8040BC4F30251B2
:103590004FF00A0B032900D180B2042900D1C0B238
:1035A0000021EEE75946FCF71DFE303107F8011DFA
:1035B0000028F7D1ADEB070000F1200B600702D522
:1035C00024F4803401E04FF0010ADA4502DDAAEB71
:1035D0000B0000E00020824600EB0B01089801443C
:1035E000A9EB01000A90E00306D4DDE90D23214692
:1035F0000A9800F050F806444FF0000908E009A9C5
:1036000011F80900DDE90D12904709F10109761C56
:1036100008998945F3DBE0030CD5DDE90D2321464C
:103620000A9800F038F8064404E0DDE90D12302075
:103630009047761CBAF10001AAF1010AF5DC05E019
:10364000DDE90D1217F8010B9047761CBBF1000164
:10365000ABF1010BF4DC0A982146DDE90D2300F003
:1036600008F806446D1C97E60928010030BCBDE847
:10367000C08F2DE9F041044600251E4617468804F8
:1036800004D405E039462020B0476D1C641EF9D5EE
:103690002846BDE8F0812DE9F041044600251E468C
:1036A0009046C80301D5302700E02027880404D5C0
:1036B00005E041463846B0476D1C641EF9D52846E2
:1036C000BDE8F0810A68531C0B6010707047000061
:1036D0000025FE4C6572A572E5722573657325742D
:1036E000A573E573FDF7E0FA0020FCF7CBFE01209F
:1036F000FCF7C8FEFFF77EFB0020FDF7E1FAFCF7C0
:103700002BFE0120FCF7AEFD00F038FAF0A0FCF72C
:103710000BFE4FF47A763046FCF799FFFFF712FA6A
:10372000FFF78AF9EC48FFF7D3F9EB484C38FEF77E
:1037300093FD6723628A6827E748A0214C38FEF78B
:1037400049FD38B1E4484C38FEF76CFDFCF7E6FD66
:10375000E2A002E0FCF7E2FDE2A0FCF7E5FD304666
:10376000FCF775FF608A3B46401C82B2DA48A02114
:103770004C38FEF72FFD38B1D7484C38FEF752FDD4
:10378000FCF7CCFDD9A002E0FCF7C8FDD9A0FCF7FE
:10379000CBFD3046FCF75BFF628ACF48A0214C3856
:1037A000FEF700FD0746FCF7B9FD672F26D0D3A032
:1037B000FCF7BAFD3046FCF74AFF608AA021401CA6
:1037C00082B2C5484C38FEF7EDFC0746FCF7A6FD73
:1037D000682F15D0CBA000BFFCF7A6FD3046FCF744
:1037E00036FF01274FF002084FF007094FF01F0A7C
:1037F0004FF00C0BFCF71EFD20B113E0C3A0D7E780
:10380000C4A0E9E7FDF756F8E06107E0FDF752F8DC
:10381000E169401AB04201D9277003E0FCF70AFDC4
:103820000028F3D02078E0B1012831D00228E1D17E
:10383000607A012831D0A07A012850D0E07A01289E
:1038400078D0207B01286DD0E07B0128D2D1E573B0
:103850002570FFF7B3FAFFF775F99F48FFF738F9BE
:10386000C8E7E07B012807D0A07B0128C2D1A5735F
:10387000FCF754FDA9A0B8E0E57384F80080FCF7DC
:103880004DFDA7A0FCF750FD9348FFF701F9B1E704
:103890009148FFF70FFA2570ACE76572607807284A
:1038A000A8D2DFE800F040040B1229303700FCF703
:1038B00035FD9CA0FCF738FD65709BE7FCF72EFDFD
:1038C0009AA0FCF731FD677094E7FCF727FD99A0FB
:1038D000FCF72AFD84F801808CE760708AE7A57206
:1038E0006078072886D2DFE800F00605070E151E6F
:1038F0000400DCE7E9E7E1E7FCF710FD8FA0FCF747
:1039000013FD0320E9E7FCF709FD8EA0FCF70CFD91
:103910000420E2E7FCF702FD8BA0FCF705FD052083
:10392000DBE707E064E0FCF7F9FC89A0FCF7FCFCAE
:103930000620D2E7E5726078072891D2DFE800F030
:10394000040F1A25313E4A00FCF7E8FCA0793C211F
:10395000401CB0FBF1F201FB1202A2718DE0FCF7FA
:10396000DDFCE0793C21401CB0FBF1F201FB1202CE
:10397000E27182E0FCF7D2FC217A1820491CB1FBED
:10398000F0F200FB1212227277E0FCF7C7FCA0787D
:103990004946401CB0FBF1F209FB120067E0A27837
:1039A0006BE0FCF7BBFCE0785146401CB0FBF1F249
:1039B0000AFB1200E07088B3E2785EE0FCF7AEFC30
:1039C00021795846491CB1FBF0F20BFB121176E04D
:1039D000227952E0FCF7A2FC60796421401CB0FB24
:1039E000F1F201FB1202627147E0FCF79DFC01E776
:1039F000257360780728FAD2DFE800F00413212F3E
:103A00004757B000FCF78AFCA07940B13C21401E2A
:103A100090FBF1F201FB1200A071AAE042E03B2012
:103A2000FAE7FCF77BFCE07938B13C21401E90FBC3
:103A3000F1F201FB1200E0719BE03B20FBE7FCF799
:103A40006DFC207A38B11821401E90FBF1F201FB89
:103A5000120020728DE01720FBE7FCF75FFCA078D6
:103A60004946401E90FBF1F209FB1200C0B2A07063
:103A7000002894D184F8029091E7144836A11430BC
:103A8000FFF758FC11481430AFE7FCF747FCE1782A
:103A90005046491E91FBF0F20AFB121111F0FF0192
:103AA000E17089D184F803A086E7FCF737FC21791F
:103AB0005846491E91FBF0F20BFB1211C9B221715D
:103AC000002985D184F804B082E7000000000020BE
:103AD0004D54335441340000B00000207720312091
:103AE00058000000772031206F6B000077203220D3
:103AF00058000000772032206F6B000072203120C8
:103B0000580000007220322058000000722031203E
:103B10006F6B0000722032206F6B0000623100007A
:103B20007365740053454353000000004D494E53E4
:103B300000000000484F555253000000574B4441CD
:103B400059000000444159004D4F4E5448000000B8
:103B5000594541520000000025750000FCF7DEFBCE
:103B6000607940B16421401E90FBF1F201FB12002C
:103B70006071C2B281E76320FAE7000030B51748F0
:103B800087B0C16C41F01001C164C06C032400F027
:103B9000100005904FF4805000900120CDE9020400
:103BA0000F48104D019069462846FCF78FFD4FF4F1
:103BB000804000900220CDE902040B480190694644
:103BC0002846FCF783FD002203212820FDF7C6F9D3
:103BD0002820FDF7B8F907B030BD00000010024002
:103BE00000002110001000480000111000FE1467B2
:103BF000001D1447009D009C003F00FA1400005374
:103C000041980019485A095A005F00FC015F01FC05
:103C100000AF1404005BC018815AC9005800C005E9
:103C2000005F004200F5006700EA00AF00BF0046F9
:103C300000FF00EF0400000106070817090001005B
:103C40000200040020000800000000000000000046
:103C50000102030406070809A0860100400D0300C5
:103C6000801A060000350C0040420F0080841E00C0
:103C700000093D0000127A000024F40000366E01B5
:103C80000048E801006CDC02A83C000800000020AD
:103C9000500000005C330008F83C00085000002091
:103CA000E80400006C330008000005010B1200005E
:103CB000000000000000000000000A0000000000FA
:103CC000000000000000000000000400B80B00002D
:103CD000B80B000000040048001000480000004835
:103CE00000000048000000480000004800000048B4
:083CF0000000000000093D0086
:040000050800019D51
:00000001FF
